:100000000C9447000C9400000C9400000C94000029
:100010000C9400000C9400000C9400000C94000060
:100020000C9400000C9400000C9400000C94000050
:100030000C9400000C9400000C9400000C94000040
:100040000C9400000C9400000C9400000C94000030
:100050000C9400001027E80364000A00010000105F
:10006000000110000100467265713A2025642048A5
:100070007A0057616974696E672E2E2E000080C069
:100080000B006001720002007F017E000000F89406
:10009000EE27ECBBF1E0FBBFEBBFE5BF8DE0A2E0DC
:1000A000BB27ED938A95E9F780E094E0A0E6ED9315
:1000B0000197E9F7E0E8F0E085919591009761F00C
:1000C000A591B59105901590BF01F00105900D9295
:1000D0000197E1F7FB01F0CFEFE5EDBFE4E0EEBF04
:1000E000C0E6D1E00C947400A4E1C0D0E0E0E2BB33
:1000F000E0E0EFBDE0E0F0E0FDBDECBDE0E2E8BF38
:10010000E1E4EEBDE8B7E5FFFDCF0E9426032F0135
:10011000E0E2E8BFE1E0EEBDE8B7E5FFFDCF0E9419
:1001200026033F01E0E2E8BFE1E4EEBDE8B7E5FF0A
:10013000FDCF0E9426034F01E0E2E8BFE0E0EEBD04
:100140004814590460F5F401E419F5095F016627C4
:100150007727A0E0B2E18AE790E00E948003E09375
:100160007B01F0937C0160937D0170937E01EBE64F
:10017000F1E0FA93EA93E6E6F0E0FA93EA93E0918D
:100180007B01F0917C010E947B030E94AD0384E01F
:100190000E94D902289636D0ABE6B1E002C0A0E6B4
:1001A000B1E053D0A5CFFFCFAA93E8B3EF70AE2F45
:1001B000E881E07FEA2BE8BB8BE18A95F1F7D99AD9
:1001C0008BE18A95F1F7D9988BE18A95F1F77BC09D
:1001D000AA93A881E9DFE881E295E883A881E4DFBA
:1001E00088EC90E00197F1F76EC0AA93E881F0E007
:1001F000E158FE4FE081A981AE0FEADFD980C880C7
:1002000022960895A2E00E942F03ACE0E1DFA1E076
:100210000E942F03E0E0CE2EDE2E0895AA93A8813F
:10022000AA3021F0E0918301DE1648F0E0E0EA9385
:10023000C394AC2DDADFA881AA3009F444C0D3946A
:10024000D89AA881C5DFD8983EC0BA93AA931A93CA
:10025000A981BA81ED91A983BA831E2FE03019F0EC
:10026000A12FDCDFF5CF188123960895AA93E7B379
:10027000E06FE7BBD19AD09AD29AD998D898DA98F9
:10028000E881E0938301E058E0938101E881E05444
:10029000E0938201A4E1B0E00E9469030E9435036B
:1002A0000E9435030E943503A0E27EDF80E991E0E1
:1002B0000197F1F7A8E28CDFA4E08ADFA5E888DFE8
:1002C000A6E086DF9FDF21960895BA93AA931A933A
:1002D0000A93AA81BB8112960E94A503309759F117
:1002E000AA81BB8114960E94A5038F01309761F00B
:1002F0000230E0E01E0798F0F80131978F01AA81E3
:10030000BB811496ED93FC93AA81BB811296ED916B
:10031000FD913196FE93EE933197AC81A083AA8133
:10032000BB810E94A503FF232AF0ED91FD91319638
:10033000FE93EE9306C0AA81BB81EFEFFFEFED9332
:10034000FC931981088125960895BA93AA9326975C
:100350000E94B20310E0AC85BD85E0E0F0E0ED93D3
:10036000FC93EA89FB893196EA8BFB8B3197E49108
:100370002E2FE03009F415C1E12FE03039F4253299
:1003800011F411E002C00E943D030AC1E130A9F45A
:10039000253219F40E943D0302C112E040E000E062
:1003A0002D3211F401E0FCC02B3211F44BE2F8C005
:1003B000203211F440E2F4C002C0E23039F450E0DF
:1003C00013E0203311F40068EBC003C0E33009F000
:1003D000E7C0203310F02A3308F007C0AAE05A9F84
:1003E000502DE22FE0535E0FDBC0E22FE33649F4DD
:1003F0000E944403E889F989A481AA930E944A03D0
:10040000CEC0E33741F40E9444030E9450030E948F
:100410000D031E2F0AC0E03761F40E9444030E94BE
:1004200050030E9419031E2F086002600F7730E00E
:1004300034C0E43611F0E93611F4046002C0E53747
:1004400031F4E4E5F0E0EE83FF8315E00CC0E8351D
:1004500011F4086003C0E83709F0A1C0EEE5F0E050
:10046000EE83FF8314E002FF14C00E9444030E9445
:100470005A03AB85AA233AF4EA85FB850E947703E9
:10048000EA87FB874DE2403011F01F5F01C00B7F10
:1004900004C00E9444030E945A0300FD11C01517B6
:1004A00078F407FF08C002FF04C00B7F242F11500F
:1004B00001C020E301C020E20E943D035150EFCF74
:1004C000312F01FF17C03030A1F003FF06C0EE81CD
:1004D000FF812591EE83FF8305C0AE81BF812D9101
:1004E000AE83BF830E943D03503009F0515031501C
:1004F000EACF4BC020E3EE81FF810E94A903E88789
:10050000F987EE81FF813296EE83FF83E885F985D6
:10051000AA85BB85AE17BF0750F02F5FA885B985A8
:10052000EA85FB85EA1BFB0BEA87FB87EFCF2A33C3
:1005300028F003FF02C0295F01C0295D04FD1AC035
:10054000213320F4A885B985119709F409C0531700
:1005500010F000FF01C013C020E207FF0BC020E332
:10056000006102FF07C00B7F4A930E944A0350308C
:1005700009F051500E943D03503009F05150315064
:10058000A885B985129708F0B5CF00FF08C0503094
:1005900031F05150E0E2EA930E944A03F8CF10E0B4
:1005A000E0CEAC85BD850E94A5030E94B903649688
:1005B0000895FF92F82E26970E94B4030E946203CA
:1005C000309719F4EFEFFFEF23C0DE0116960E947B
:1005D00073038D010E946203EE83FF83E0E0E887EE
:1005E000E987DE011A960E9473030E94A503FA931D
:1005F000EA931A930A93E5E6F1E0FA93EA93DE01AF
:100600001A96A3DE9F01AE81BF81E0E0EC93F90171
:100610000E94BB032A96FF900895BA93AA93A991CA
:10062000B991EE27FF276D91662311F03196FBCF2C
:100630000895BA93AA93AA27BB27E991F991059047
:10064000002011F01196FBCFFD010895E7B5FE2FB4
:10065000E0E0DF01E6B5F0E0EA0FFB1F08950E943D
:10066000E800A3E0B0E00C946903A0E30E94D4008A
:1006700080E991E00197F1F708952A93AD85BE8551
:10068000EF85F88909950895E889F9893497E88B09
:10069000F98B0895AD85BE85EF85F8890995089594
:1006A000A889B98914960E94A503EE83FF83AE81C1
:1006B000BF810895A889B98914960E94A503EA8785
:1006C000FB870895DE011C960E9473030E94A50318
:1006D0000895109639F080EA9FE00197F1F7A89508
:1006E0001197C9F708950024AF0DB01D0895F19535
:1006F000E195F04008956F2F660F660B762F0895F1
:100700003F934F935F93002411244427552730E2F1
:10071000AA0FBB1F881F991F001C111C441F551FC7
:100720000E1A1F0A460B570B28F40E0E1F1E461FEB
:10073000571F01C0A1603A9559F7FD01BC01D001D6
:10074000CA015F914F913F910895ED91FC911197EE
:1007500008950590F491E02D08957A936A93FA93A1
:10076000EA9308955A934A933A932A931A930A93D1
:1007700008955D814C813B812A811981088108950A
:00000001FF
