:080000000C943A000C9400007E
:100008000C9400000C9400000C9400000C94000068
:100018000C9400000C9400000C9400000C946700F1
:100028000C9400000C9400000C9400000C94000048
:100038000C9400000C9400000C9400000C94000038
:100048000C9400000C9400000C940000FFFF0000CA
:100058000000010000000900050006000A000A006F
:1000680004005400070060015E000000F894EE27C9
:10007800ECBBF1E0FBBFEBBFE5BF8DE0A2E0BB2727
:10008800ED938A95E9F780E094E0A0E6ED93019777
:10009800E9F7E6E6F0E085919591009761F0A59182
:1000A800B59105901590BF01F00105900D9201974B
:1000B800E1F7FB01F0CFEFE5EDBFE4E0EEBFC0E60E
:1000C800D1E00C940C010A92AA93BA93EA93FA939A
:1000D800EFB7EA93E4E0F0E04E165F064CF4EFEF7A
:1000E800FFEFE415F50524F400240614070409F0CD
:1000F80047C0F201A0E6B1E0EE0FFF1FAE0FBF1F31
:10010800EC91EBBBE1E0F0E0EA15FB0559F4F201F4
:1001180031962F01E4E0F0E0E415F50511F44424EC
:1001280055240EC00A2C0B2859F4F20131972F01DF
:10013800EFEFFFEFE415F50519F4E3E0F0E02F0128
:10014800E1E0F0E03F01EEEFF0E0CE16DF061CF450
:100158008ED0109709F004C08FD009F495D00FC045
:10016800E4E6F0E0CE16DF061CF081D0119709F026
:1001780006C0F60131976F018ED009F491D033C0D3
:10018800E1E0F0E0E615F70571F5E0E0EBBB662489
:100198007724EEEFF0E0CE16DF061CF468D0109757
:1001A80009F004C069D009F46FD01DC0E4E6F0E09E
:1001B800CE16DF061CF05BD0119709F014C000249E
:1001C8000A140B0429F4E5E6F0E0EC15FD0509F046
:1001D80003C0E2E0F0E03F01F60131976F0131968C
:1001E8005AD009F45DD057D011F0C2BE09C053D01F
:1001F80021F400240A140B0409F002C0882499246D
:10020800E991EFBFF991E991B991A99109901895F0
:10021800EFEFEABBE1E0E2BFE5E0E3BFE0E0ECBF1F
:10022800E5E0E9BFE0E0E5BFE4BF9A9904C0002437
:100238000814090409F013C0E1E0F0E04F01E0E020
:10024800E0936801E0936901E1E0F0E05F01442494
:100258005524E4E6F0E06F01662477247894E2E020
:10026800F0E0E615F70509F4F894DFCFFFCFA09189
:100278006801B09169010895F60131966F01EEEFBA
:10028800F0E0EC15FD050895E1E0F0E0E093680189
:10029800F09369010895E4E6F0E0EC15FD05089592
:1002A800E0E0E0936801E0936901AA24BB24089583
:00000001FF
