:100000000C9437000C9400000C9400000C94000039
:100010000C9400000C9400000C9400000C94000060
:100020000C9400000C9400000C9400000C94000050
:100030000C9400000C9400000C9400000C94000040
:100040000C9400000C9400000C9400000C94000030
:100050000C94000048656C6C6F20576F726C6421C3
:100060002121000080C00200600164000000F894BB
:10007000EE27ECBBF1E0FBBFEBBFE5BF8DE0A2E0FC
:10008000BB27ED938A95E9F780E094E0A0E6ED9335
:100090000197E9F7E6E6F0E085919591009761F028
:1000A000A591B59105901590BF01F00105900D92B5
:1000B0000197E1F7FB01F0CFEFE5EDBFE4E0EEBF24
:1000C000C0E6D1E00C946400A2E369D0E2E0EA93D8
:1000D000A0E026D0A4E5B0E04FD0FFCFFFCFAA9399
:1000E000E2B3EF70AE2FE881E07FEA2BE2BB8BE159
:1000F0008A95F1F7A99A8BE18A95F1F7A9988BE196
:100100008A95F1F775C0AA93A881E9DFE881E295A5
:10011000E883A881E4DF88EC90E00197F1F768C0FC
:10012000AA93E881F0E0E05AFE4FE081A981AE0F8A
:10013000EADF5980488022960895A2E05BD0ACE0C7
:10014000E2DFA1E057D0E0E04E2E5E2E0895AA93A4
:10015000A881AA3011F0571448F0E0E0EA934394E4
:10016000A42DDEDFA881AA3009F442C05394A89AD6
:10017000A881C9DFA8983CC0BA93AA931A93E981D1
:10018000FA813196E983FA833197E4911E2FE030AA
:1001900019F0A12FDCDFF3CF188123960895AA93DD
:1001A000E1B3E06FE1BBA19AA09AB99AA998A89887
:1001B000C1987880E881E058E0936201E881E054DA
:1001C000E0936301A4E1B0E00E94060118D017D0CB
:1001D00016D0A0E284DF80E991E00197F1F7A8E270
:1001E00092DFA4E090DFA5E88EDFA6E08CDFA5DF3C
:1001F0002196089588DFA3E0B0E00C940601A0E307
:100200006EDF80E991E00197F1F70895109639F0DB
:1002100080EA9FE00197F1F7A8951197C9F7089533
:00000001FF
