:040000000C94390023
:100004000C9400000C9400000C9400000C9400006C
:100014000C9400000C9400000C9400000C9400005C
:100024000C9466000C9400000C9400000C940000E6
:100034000C9400000C9400000C9400000C9400003C
:100044000C9400000C9400000C9400000C9400002C
:10005400FFFF0000000000000900050006000A0080
:10006400080004005400070060015C000000F894DC
:10007400EE27ECBBF1E0FBBFEBBFE5BF8DE0A2E0F8
:10008400BB27ED938A95E9F780E094E0A0E6ED9331
:100094000197E9F7E4E6F0E085919591009761F026
:1000A400A591B59105901590BF01F00105900D92B1
:1000B4000197E1F7FB01F0CFEFE5EDBFE4E0EEBF20
:1000C400C0E6D1E00C94BB000A92AA93BA93EA93D7
:1000D400FA93EFB7EA93E4E0F0E04E165F064CF4CF
:1000E400EFEFFFEFE415F50524F4002406140704EC
:1000F40009F01AC0F201A0E6B1E0EE0FFF1FAE0F47
:10010400BF1FEC91EBBBE1E0F0E0EA15FB0519F44D
:10011400F201319605C00A2C0B2819F4F20131972B
:100124002F01E1E0F0E01AC0E1E0F0E0E615F705A8
:1001340039F4E0E0EBBB66247724882499240FC0CB
:10014400E4E0F0E0E415F50529F0EFEFFFEFE41546
:10015400F50529F4E0E0EBBBE2E0F0E03F01E4E187
:10016400E2BFE991EFBFF991E991B991A9910990A1
:100174001895EFEFEABBE0EBE2BFE5E0E3BFE0E0B8
:10018400ECBFE5E0E9BFE0E0E5BFE4BF9A9904C055
:1001940000240814090409F01BC0E1E0F0E04F0159
:1001A4000A2C0B2851F45F01E3E0F0E0E415F505B7
:1001B40019F0F20131962F0108C0AA24BB24042CA3
:1001C400052819F0F20131972F01662477247894D9
:1001D400E2E0F0E0E615F70509F4F894D7CFFFCF95
:00000001FF
