:0A0000000C9437000C9400000C94DF
:10000A0000000C9400000C9400000C9400000C9466
:10001A0000000C9400000C9400000C9464000C94F2
:10002A0000000C9400000C9400000C9400000C9446
:10003A0000000C9400000C9400000C9400000C9436
:10004A0000000C9400000C9400000000000009005D
:10005A00050006000A0004000400540007006001BD
:10006A0058000000F894EE27ECBBF1E0FBBFEBBFB1
:10007A00E5BF8DE0A2E0BB27ED938A95E9F780E022
:10008A0094E0A0E6ED930197E9F7E0E6F0E08591C8
:10009A009591009761F0A591B59105901590BF01D2
:1000AA00F00105900D920197E1F7FB01F0CFEFE522
:1000BA00EDBFE4E0EEBFC0E6D1E00C94A1000A92E5
:1000CA00AA93BA93EA93FA93EFB7EA93E4E0F0E0DB
:1000DA004E165F0624F400240614070409F00FC024
:1000EA00F201A0E6B1E0EE0FFF1FAE0FBF1FEC91C9
:1000FA00EBBBF20131962F01E1E0F0E012C0E1E042
:10010A00F0E0E615F70571F4E0E0EBBB662477242E
:10011A00E4E0F0E0E415F50529F444245524E2E08E
:10012A00F0E03F01E0EBE2BFE991EFBFF991E9911D
:10013A00B991A99109901895EFEFEABBE0EBE2BFFC
:10014A00E5E0E3BFE0E0ECBFE5E0E9BFE0E0E5BF02
:10015A00E4BF9A9905C044245524662477247894E8
:10016A00E2E0F0E0E615F70509F4F894F2CFFFCFE4
:00000001FF
