:040000000C943F001D
:100004000C9400000C9400000C9400000C9400006C
:100014000C9400000C9400000C9400000C946C00F0
:100024000C9400000C9400000C9400000C9400004C
:100034000C9400000C9400000C9400000C9400003C
:100044000C9400000C9400000C9400000C9400002C
:100054001027E80364000A000100001000011000EA
:100064000100410000002563000080C0040004007A
:100074006600020060016E000000F894EE27ECBBFD
:10008400F1E0FBBFEBBFE5BF8DE0A2E0BB27ED9342
:100094008A95E9F780E094E0A0E6ED930197E9F70B
:1000A400E0E7F0E085919591009761F0A591B59115
:1000B40005901590BF01F00105900D920197E1F7AD
:1000C400FB01F0CFEFE5EDBFE4E0EEBFC0E6D1E029
:1000D4000C94B2000A921A92FA926A937A938A93CF
:1000E4009A93AA93BA93EA93FA93EFB7EA93EBE558
:1000F400F0E04E165F0614F5F30131963F01E4E19A
:10010400F0E0E615F705D1F46A97FE01FA93EA9355
:10011400EAE6F0E0FA93EA93E42DFF2766277727CF
:100124000E94670384E00E94C6022896DE0179D00B
:10013400F20131962F01662477246A96EFEFEDBD24
:10014400EEEFECBDE991EFBFF991E991B991A99175
:100154009991899179916991F990199009901895DB
:10016400ADE070D0E0E0EFBDE5E0EEBDEFEFEDBD5A
:10017400EEEFECBDE4E0E9BFE0E0E5BFE4BF789476
:10018400FFCFFFCFAA93E2B3EF70AE2FE881E07FF9
:10019400EA2BE2BB8BE18A95F1F7A99A8BE18A9568
:1001A400F1F7A9988BE18A95F1F778C0AA93A88111
:1001B400E9DFE881E295E883A881E4DF88EC90E058
:1001C4000197F1F76BC0AA93E881F0E0E05AFE4F83
:1001D400E081A981AE0FEADF998088802296089594
:1001E400A2E00E941303ACE0E1DFA1E00E9413034C
:1001F400E0E08E2E9E2E0895AA93A881AA3011F0D5
:100204009B1448F0E0E0EA938394A82DDCDFA881F6
:10021400AA3009F443C09394A89AA881C7DFA89888
:100224003DC0BA93AA931A93A981BA81ED91A98387
:10023400BA831E2FE03019F0A12FDEDFF5CF18812D
:1002440023960895AA93E1B3E06FE1BBA19AA09A23
:10025400D19AA998A898D998B880E881E058E093F1
:100264006201E881E054E0936301A4E1B0E00E94FC
:100274004D030E9419030E9419030E941903A0E26E
:1002840081DF80E991E00197F1F7A8E28FDFA4E034
:100294008DDFA5E88BDFA6E089DFA2DF2196089534
:1002A400BA93AA931A930A93AA81BB8112960E94C5
:1002B4005F03309759F1AA81BB8114960E945F03B2
:1002C4008F01309761F00230E0E01E0798F0F801EA
:1002D40031978F01AA81BB811496ED93FC93AA8177
:1002E400BB811296ED91FD913196FE93EE93319779
:1002F400AC81A083AA81BB810E945F03FF232AF003
:10030400ED91FD913196FE93EE9306C0AA81BB81D7
:10031400EFEFFFEFED93FC93198108812596089583
:10032400BA93AA9326970E946C0310E0AC85BD850E
:10033400E0E0F0E0ED93FC93EA89FB893196EA8BE7
:10034400FB8B3197E4912E2FE03009F415C1E12F96
:10035400E03039F4253211F411E002C00E94210387
:100364000AC1E130A9F4253219F40E94210302C123
:1003740012E040E000E02D3211F401E0FCC02B3229
:1003840011F44BE2F8C0203211F440E2F4C002C090
:10039400E23039F450E013E0203311F40068EBC08C
:1003A40003C0E33009F0E7C0203310F02A3308F02B
:1003B40007C0AAE05A9F502DE22FE0535E0FDBC026
:1003C400E22FE33649F40E942803E889F989A481DD
:1003D400AA930E942E03CEC0E33741F40E9428035F
:1003E4000E9434030E94FA021E2F0AC0E03761F40F
:1003F4000E9428030E9434030E9406031E2F0860F3
:1004040002600F7730E034C0E43611F0E93611F4BD
:10041400046002C0E53731F4E4E5F0E0EE83FF83E5
:1004240015E00CC0E83511F4086003C0E83709F0A2
:10043400A1C0EEE5F0E0EE83FF8314E002FF14C0F8
:100444000E9428030E943E03AB85AA233AF4EA855E
:10045400FB850E945B03EA87FB874DE2403011F085
:100464001F5F01C00B7F04C00E9428030E943E034B
:1004740000FD11C0151778F407FF08C002FF04C07F
:100484000B7F242F115001C020E301C020E20E9401
:1004940021035150EFCF312F01FF17C03030A1F0AD
:1004A40003FF06C0EE81FF812591EE83FF8305C023
:1004B400AE81BF812D91AE83BF830E942103503052
:1004C40009F051503150EACF4BC020E3EE81FF8157
:1004D4000E946303E887F987EE81FF813296EE83F9
:1004E400FF83E885F985AA85BB85AE17BF0750F061
:1004F4002F5FA885B985EA85FB85EA1BFB0BEA8794
:10050400FB87EFCF2A3328F003FF02C0295F01C025
:10051400295D04FD1AC0213320F4A885B9851197FB
:1005240009F409C0531710F000FF01C013C020E202
:1005340007FF0BC020E3006102FF07C00B7F4A9353
:100544000E942E03503009F051500E942103503074
:1005540009F051503150A885B985129708F0B5CFEC
:1005640000FF08C0503031F05150E0E2EA930E949D
:100574002E03F8CF10E0E0CEAC85BD850E945F036A
:100584000E94730364960895FF92F82E26970E94A2
:100594006E030E944603309719F4EFEFFFEF23C078
:1005A400DE0116960E9457038D010E944603EE83D6
:1005B400FF83E0E0E887E987DE011A960E9457038B
:1005C4000E945F03FA93EA931A930A93E2E5F1E037
:1005D400FA93EA93DE011A96A3DE9F01AE81BF81EE
:1005E400E0E0EC93F9010E9475032A96FF900895C8
:1005F400BA93AA93A991B991EE27FF276D91662327
:1006040011F03196FBCF0895BA93AA93AA27BB277A
:10061400E991F9910590002011F01196FBCFFD01AD
:1006240008950E94D800A3E0B0E00C944D03A0E329
:100634000E94C40080E991E00197F1F708952A939C
:10064400AD85BE85EF85F88909950895E889F9890E
:100654003497E88BF98B0895AD85BE85EF85F889CD
:1006640009950895A889B98914960E945F03EE83B9
:10067400FF83AE81BF810895A889B98914960E9429
:100684005F03EA87FB870895DE011C960E945703E7
:100694000E945F030895109639F080EA9FE0019765
:1006A400F1F7A8951197C9F708950024AF0DB01D6F
:1006B4000895F195E195F0400895ED91FC9111971D
:1006C40008950590F491E02D08957A936A93FA932E
:1006D400EA9308955A934A933A932A931A930A935E
:1006E40008955D814C813B812A8119810881089597
:00000001FF
