:0C0000000C942F000C9400000C940000E5
:10000C000C9400000C9400000C9400000C94000064
:10001C000C9400000C9400000C945C000C940000F8
:10002C000C9400000C9400000C9400000C94000044
:10003C000C9400000C9400000C9400000C94000034
:10004C000C9400000C940000010002000400540009
:10005C000000F894EE27ECBBF1E0FBBFEBBFE5BF73
:10006C008DE0A2E0BB27ED938A95E9F780E094E060
:10007C00A0E6ED930197E9F7E6E5F0E0859195911F
:10008C00009761F0A591B59105901590BF01F00115
:10009C0005900D920197E1F7FB01F0CFEFE5EDBF75
:1000AC00E4E0EEBFC0E6D1E00C948800AA93BA93CA
:1000BC00EA93FA93EFB7EA93EFE1E2BFA0E6B1E07F
:1000CC00ED91FD913196FE93EE93A0916001B0916C
:1000DC006101A530EDE0BE0771F4A0E0A899A1E0A4
:1000EC00E1E0EA2711F4A89801C0A89AE0E0E093B7
:1000FC006001E0936101E991EFBFF991E991B99148
:10010C00A9911895E1E0E4BBE2E0E3BFEFE1E2BFC7
:10011C00E1E0E9BFE0E0EABBE9BBEFEFE7BBE0E021
:10012C00E8BB7894C89B08C0E0E0E8BBE8B3EF5F9D
:10013C00E8BBE1E0F0E02F01E1E0F0E0E415F505CB
:10014C0019F4E8B3E03009F40DC0A2E3B0E00E946A
:10015C00CC00E8B3EE0FE8BBE8B3E03811F444246C
:10016C00552412C0E8B3E03031F4E0E0E8BBE1E044
:10017C00F0E02F0109C0A2E3B0E00E94CC00E8B38C
:10018C00F0E0F595E795E8BBCDCFFFCF109639F0B1
:10019C0088EB9BE00197F1F7A8951197C9F70895A3
:00000001FF
